:100000000C9442000C9414090C9414090C941409D7
:100010000C9414090C9414090C9414090C941409EC
:100020000C9414090C9414090C9414090C941409DC
:100030000C9414090C9414090C9414090C941409CC
:100040000C9414090C9414090C9414090C941409BC
:100050000C9414090C9414090C9414090C941409AC
:100060000C9414090C9414090C9414090C9414099C
:100070000C9414090C9414090C9414090100010443
:1000800000122C0011241FBECFEFD4E0DEBFCDBF85
:10009000ECE7F0E040E017C0B591A59135912591CE
:1000A000059107FD0CC095918591EF01F92FE82F7F
:1000B00005900D92A217B307D9F7FE0104C01D9257
:1000C000A217B307E1F7E338F40731F70E948A0576
:0800D0000C946A00F894FFCFC4
:1000D800EF92FF920F931F93CF93DF93CDB7DEB7C5
:1000E80068970FB6F894DEBF0FBECDBFE82EF62E88
:1000F8008A0182E0861708F4F8C083E08D8789E0DA
:100108008E878FE08F8789E2888B8FE2898B85E3E2
:100118008A8B83E28B8B8DE18C8B87E18D8B80E3DF
:100128008E8B8AE28F8B84E2888F80E090E039C0E2
:100138009C012350310926303105D0F0EDE0F0E084
:10014800EC0FFD1FE80FF91F2081EF2D0F2C000C7D
:10015800FF0BE20FF11D27FDFA95E00FF11F20813B
:10016800E1E0F0E0EC0FFD1FE80FF91F208318C055
:10017800EDE0F0E0EC0FFD1FE80FF91FE0810E2E17
:10018800000CFF0BEF19F109F7FCF395E00FF11FD5
:100198002081E1E0F0E0EC0FFD1FE80FF91F20835C
:1001A80001968C30910524F29E012F5F3F4F4CE061
:1001B80063E08E2D0E94440680E090E039C09C01E7
:1001C8002350310926303105D0F0EDE0F0E0EC0F96
:1001D800FD1FE80FF91F2081EF2D0F2C000CFF0BDE
:1001E800E20FF11D27FDFA95E00FF11FA1E0B0E045
:1001F800AC0FBD1FA80FB91F2C91208318C0EDE0CC
:10020800F0E0EC0FFD1FE80FF91FE0810E2E000C47
:10021800FF0BEF19F109F7FCF395E00FF11FA1E0CF
:10022800B0E0AC0FBD1FA80FB91F2C912083019619
:100238008C30910524F2F1102AC0F801808189835D
:1002480081818A8382818B8380858C8386858D8357
:1002580085858E8384858F83868188879E012F5F1D
:100268003F4F48E062E08E2D0E9444068981F801E4
:1002780080838A8181838B8182838C8180878D8131
:1002880086878E8185878F81848788858683F2E03B
:10029800FF1246C2F80182898983808D8A83868D00
:1002A8008B83878D8C8380A18D83828D8E838489B7
:1002B8008F83838988879E012F5F3F4F48E062E0E4
:1002C8008E2D0E9444068981F801828B8A81808F55
:1002D8008B81868F8C81878F8D8180A38E81828F81
:1002E8008F81848B8885838B1BC28DEF860F83302B
:1002F80008F05DC11D8686E08E878CE08F8785E3D8
:10030800888B84E3898B83E38A8B80E28B8B8AE1F9
:100318008C8B84E18D8B82E38E8B81E38F8B80E3E2
:10032800888F80E090E05FC083309105DCF4EDE0D9
:10033800F0E0EC0FFD1FE80FF91F2081EF2D0F2CC7
:10034800000CFF0BE20FF11D27FDFA95E00FF11FDE
:1003580033972081E1E0F0E0EC0FFD1FE80FF91F73
:10036800208340C09C012650310923303105C8F450
:10037800EDE0F0E0EC0FFD1FE80FF91FE0810E2E15
:10038800000CFF0BEF19F109F7FCF395E00FF11FD3
:100398002381E1E0F0E0EC0FFD1FE80FF91F208357
:1003A80021C0EDE0F0E0EC0FFD1FE80FF91F4081E0
:1003B8002F2D0F2C000C330B235031095AEF520309
:1003C800F001539FF00D1124E40FF11D47FDFA953C
:1003D800E00FF11F2081E1E0F0E0EC0FFD1FE80FD6
:1003E800F91F208301968C3091050CF49DCF9E0156
:1003F8002F5F3F4F4CE063E08E2D0E94440680E063
:1004080090E060C083309105DCF4EDE0F0E0EC0FA3
:10041800FD1FE80FF91F2081EF2D0F2C000CFF0B9B
:10042800E20FF11D27FDFA953397E00FF11FA1E0C8
:10043800B0E0AC0FBD1FA80FB91F2C91208341C09D
:100448009C012650310923303105D0F4EDE0F0E06D
:10045800EC0FFD1FE80FF91FE0810E2E000CFF0BBB
:10046800EF19F109F7FCF3953396E00FF11FA1E0BE
:10047800B0E0AC0FBD1FA80FB91F2C91208321C07D
:10048800EDE0F0E0EC0FFD1FE80FF91F40812F2D84
:100498000F2C000C330B235031095AEF5203F00193
:1004A800539FF00D1124E40FF11D47FDFA95E00F5D
:1004B800F11FA1E0B0E0AC0FBD1FA80FB91F2C9130
:1004C800208301968C3091050CF49CCFF3E0FF1249
:1004D8002AC0F8018589898386898A8387898B83DD
:1004E800858D8C8383A18D8382A18E8381A18F8347
:1004F800838D88879E012F5F3F4F48E062E08E2DF5
:100508000E9444068981F801858B8A81868B8B81BC
:10051800878B8C81858F8D8183A38E8182A38F8128
:1005280081A38885838FF5E0FF12FAC0F8018581E1
:10053800898384818A8383818B8381858C83878562
:100548008D8380898E8381898F83838588879E01A7
:100558002F5F3F4F48E062E08E2D0E94440689815C
:10056800F80185838A8184838B8183838C81818749
:100578008D8187878E81808B8F81818B888583870A
:10058800CFC08630910544F4EDE0F0E0EC0FFD1F9C
:10059800E80FF91F808309C0EDE0F0E0EC0FFD1FC4
:1005A800E80FF91F2CE0280F2083019602C080E095
:1005B80090E08C3091052CF320E030E023C0EDE092
:1005C800F0E0EC0FFD1FE20FF31F40818F2D0F2C81
:1005D800000C990B0697FC01EE0FFF1FE80FF91F9F
:1005E800EE0FFF1FE40FF11D47FDFA95E00FF11F15
:1005F8008081E1E0F0E0EC0FFD1FE20FF31F808344
:100608002F5F3F4F2C303105D4F29E012F5F3F4FB3
:100618004CE063E08E2D0E94440620E030E023C0C9
:10062800EDE0F0E0EC0FFD1FE20FF31F40818F2D8E
:100638000F2C000C990B0697FC01EE0FFF1FE80F1B
:10064800F91FEE0FFF1FE40FF11D47FDFA95E00FAC
:10065800F11FA1E0B0E0AC0FBD1FA20FB31F8C913A
:1006680080832F5F3F4F2C303105D4F2F6E0FF1224
:100678002AC0F80184A1898385A18A8386A18B83F6
:1006880084A58C8382A98D8381A98E8380A98F8379
:1006980082A588879E012F5F3F4F48E062E08E2D3C
:1006A8000E9444068981F80184A38A8185A38B81ED
:1006B80086A38C8184A78D8182AB8E8181AB8F814B
:1006C80080AB888582A7F8E0FF122AC0F80185A9C7
:1006D800898387A58A8381A58B8380A58C8387A13D
:1006E8008D8385A58E8383A98F8384A988879E019E
:1006F8002F5F3F4F48E062E08E2D0E9444068981BB
:10070800F80185AB8A8187A78B8181A78C8180A717
:100718008D8187A38E8185A78F8183AB888584ABE4
:1007280068960FB6F894DEBF0FBECDBFDF91CF91AC
:0A0738001F910F91FF90EF900895BC
:10074200AF92BF92CF92DF92EF92FF920F931F93DD
:10075200CF93DF93082F880F110BE801CC0FDD1F19
:10076200C00FD11FCC0FDD1F6E015E01C0C1FB01A6
:10077200EA0DFB1D2081211147C0EAEF2E2F200335
:10078200C001219F900D11249C012A0D3B1DF901EE
:10079200EE0FFF1F2E0F3F1F220F331F220F331F9B
:1007A200220F331FD901F90107C07A01EE0EFF1E95
:1007B20081E0E701888331967D01D7E0ED0EF11CDF
:1007C200EE16FF0694F7F901389607C07A01EE0E8D
:1007D200FF1E81E0E701888331967D01DFE0ED0EA7
:1007E200F11CEE16FF0694F7205F3F4F07C0FA0197
:1007F200E20FF31F81E080832F5F3F4FFD01779669
:10080200E217F307A4F770C1213009F048C0EAEFFC
:100812002E2F2003C001219F900D11249C012A0D2F
:100822003B1DF901EE0FFF1F2E0F3F1FC901880F5D
:10083200991F880F991F880F991FDC01FC0107C0BF
:100842007A01EE0EFF1E21E0E701288331967D0139
:10085200D7E0ED0EF11CEE16FF0694F7FC01389678
:1008620007C07A01EE0EFF1E21E0E70128833196D0
:100872007D01DFE0ED0EF11CEE16FF0694F79C0100
:10088200205F3F4F06C0FA01E20FF31F10822F5F75
:100892003F4FFD017796E217F307ACF725C12230EF
:1008A20009F049C0EAEF2E2F2003C001219F900DCD
:1008B20011249C012A0D3B1DF901EE0FFF1F2E0F83
:1008C2003F1FC901880F991F880F991F880F991F11
:1008D200DC01FC0106C07A01EE0EFF1EE701188260
:1008E20031967D01D7E0ED0EF11CEE16FF069CF766
:1008F200FC01389607C07A01EE0EFF1E21E0E701E7
:10090200288331967D01DFE0ED0EF11CEE16FF0625
:1009120094F79C01205F3F4F08C0FA01E20FF31FDA
:10092200FF24F394F0822F5F3F4FFD017796E21789
:10093200F3079CF7D9C0233009F047C0EAEF2E2F06
:100942002003C001219F900D11249C012A0D3B1D03
:10095200F901EE0FFF1F2E0F3F1FC901880F991FCC
:10096200880F991F880F991FDC01FC0106C07A01CC
:10097200EE0EFF1EE701188231967D01D7E0ED0EE3
:10098200F11CEE16FF069CF7FC01389607C07A01AF
:10099200EE0EFF1E21E0E701288331967D01DFE0A4
:1009A200ED0EF11CEE16FF0694F79C01205F3F4FFF
:1009B20006C0FA01E20FF31F10822F5F3F4FFD01C5
:1009C2007796E217F307ACF78FC0243009F046C0E0
:1009D200EAEF2E2F2003C001219F900D11249C01CC
:1009E2002A0D3B1DF901EE0FFF1F2E0F3F1F220F95
:1009F200331F220F331F220F331FD901F90106C003
:100A02007A01EE0EFF1EE701188231967D01D7E0D2
:100A1200ED0EF11CEE16FF069CF7F901389606C0A2
:100A22007A01EE0EFF1EE701188231967D01DFE0AA
:100A3200ED0EF11CEE16FF069CF7205F3F4F08C03B
:100A4200FA01E20FF31FFF24F394F0822F5F3F4F6E
:100A5200FD017796E217F3079CF746C0EAEF2E2FC7
:100A62002003C001219F900D11249C012A0D3B1DE2
:100A7200F901EE0FFF1F2E0F3F1FC901880F991FAB
:100A8200880F991F880F991FDC01FC0107C07A01AA
:100A9200EE0EFF1E21E0E701288331967D01D7E0AB
:100AA200ED0EF11CEE16FF0694F7FC01389606C017
:100AB2007A01EE0EFF1EE701188231967D01DFE01A
:100AC200ED0EF11CEE16FF069CF79C01205F3F4FD6
:100AD20006C0FA01E20FF31F10822F5F3F4FFD01A4
:100AE2007796E217F307ACF72FEFA21AB20A960134
:100AF2002B5F3F4F2A153B050CF039CEDF91CF918A
:100B02001F910F91FF90EF90DF90CF90BF90AF9029
:020B1200089544
:100B1400CF93DF93CDB7DEB7C250D1400FB6F89470
:100B2400DEBF0FBECDBFCE018F569F4F0E94EF0791
:100B3400E1E6F0E080E8808310829FEF91B914B879
:100B440097B91AB814BC15BC16BC17BC18BC1092C3
:100B540080001092810010928500109284001092FF
:100B640087001092860010928900109288001092DB
:100B74008B0010928A001092B6001092B00010926E
:100B8400B1001092B2001092B3001092B40010920F
:100B94006E0010926F0010927000109269001DBADE
:100BA400109268001092C1001092C90080BF109288
:100BB4007B0010927F0010927A001CBC1092BC0043
:100BC4000E948D070E949207CE018F569F4F0E946C
:100BD400EF07BE016F5F7F4FCE018F569F4F0E947C
:100BE400E50681E090E00E944E0800E010E016C0A7
:100BF4000E948D0769E070E00E947E08E7ECF0E057
:100C0400EC0FFD1FE00FF11F8083AE014F565F4FC5
:100C1400682F81E00E946C000F5F1F4F0C33110599
:100C24003CF3BE016F5F7F4FCE018F569F4F0E94F2
:100C3400E50681E090E00E944E080BE310E01BC043
:100C4400E7ECF0E0EC0FFD1FE00FF11FAE014F5693
:100C54005F4F60818FEF0E946C00BE016F5F7F4F1A
:100C6400CE018F569F4F0E94E50681E090E00E94DE
:100C74004E080150110911231CF78EE190E00E94E7
:040C84004E089ECFA9
:100C8800EF92FF920F931F93CF93DF9300D01F92A1
:100C9800CDB7DEB7882374F448C0F901E80FF91F0F
:100CA8005081E1E0F0E0EC0FFD1FE80FF91F5083E1
:100CB800019602C080E090E0A62F062E000CBB0B28
:100CC8008A179B0754F380E090E00CC0B901680FC5
:100CD800791FFC01EA0FFB1FE20FF31F5081FB0194
:100CE80050830196E42E042E000CFF08B7016A1BFE
:100CF8007B0B8617970754F314C0A901460F571F9B
:100D0800CB018E199F098A0F9B1F01E010E00C0F81
:100D18001D1F800F911FFC018081FA0180836F5F86
:100D28007F4F6E157F054CF342C0042E000C550B07
:100D3800062E000C770BCA01861B970B11C0FC010D
:100D4800E41BF50BE60FF71FD901A80FB91FAC91EB
:100D580001E010E00C0F1D1FE00FF11FA0830196AA
:100D68008417950764F3415051090CC0D901A40FA9
:100D7800B51FFA01E61BF70BE20FF31F80818C9376
:100D880041505109461757078CF780E090E00CC096
:100D9800D901A80FB91FE1E0F0E0EC0FFD1FE80F43
:100DA800F91F40814C930196861797078CF30F9093
:100DB8000F900F90DF91CF911F910F91FF90EF90BF
:020DC80008958C
:100DCA000F931F93CF93DF938C01EB01AB01BC010F
:100DDA0080E00E94A10360E0CE010E949B07AE0161
:100DEA00B80181E00E94A10361E0CE010E949B0745
:100DFA00AE01B80182E00E94A10362E0CE010E9426
:100E0A009B07AE01B80183E00E94A10363E0CE0113
:100E1A000E949B07AE01B80184E00E94A10364E02E
:100E2A00CE010E949B07AE01B80185E00E94A10392
:100E3A0065E0CE010E949B07AE01B80186E00E94E0
:100E4A00A10366E0CE010E949B07AE01B80187E0CC
:100E5A000E94A10367E0CE010E949B07AE01B80180
:100E6A0088E00E94A10368E0CE010E949B07DF91FF
:080E7A00CF911F910F91089523
:100E82008F929F92AF92BF92CF92DF92EF92FF9298
:100E9200CF93DF93EC01688179818A819B8161150F
:100EA20071058105910521F464E279ED8BE597E006
:100EB2002DE133EF41E050E00E94670849015A01F9
:100EC2009B01AC01A7EAB1E40E94E9086B017C0135
:100ED200ACEEB4EFA50194010E940F09DC01CB0135
:100EE2008C0D9D1DAE1DBF1DB7FF03C00197A1094B
:100EF200B04888839983AA83BB839F77DF91CF9180
:100F0200FF90EF90DF90CF90BF90AF909F908F9027
:100F120008950E944107089580E091E00E944107F0
:100F22000895A0E0B0E0E0E0F1E080839183A28345
:040F3200B3830895E8
:100F3600FF920F931F93CF93DF938C0168301CF5BC
:100F460081E0F82E01C0FF0C6A95EAF7C0E0D0E018
:100F560014C0F801EC0FFD1F8081813039F48F2D0C
:100F66000F2C000C990B0E94B50806C08F2D0F2C74
:100F7600000C990B0E94CF082196C039D1054CF37D
:100F86000E94F40823C0685081E0F82E01C0FF0CCF
:100F96006A95EAF7C0E0D0E014C0F801EC0FFD1F37
:100FA6008081813039F48F2D0F2C000C990B0E9413
:100FB600C20806C08F2D0F2C000C990B0E94DC086E
:100FC6002196C039D1054CF30E94FC08DF91CF91E0
:080FD6001F910F91FF90089597
:100FDE00FC011082118212821682178210861486EC
:100FEE001586168681E08383848385838187828735
:100FFE0083878787808B818B82E0828B838B848B28
:10100E00808F818F828F868F878F80A383E0858BE1
:10101E00868B878B838F848F858F81A382A383A3F7
:10102E0084E084A385A386A382A783A784A780AB2D
:10103E0081AB82AB85E087A380A781A785A786A712
:0A104E0087A783AB84AB85AB089540
:10105800A1E21A2EAA1BBB1BFD010DC0AA1FBB1FB4
:10106800EE1FFF1FA217B307E407F50720F0A21B26
:10107800B30BE40BF50B661F771F881F991F1A9493
:1010880069F760957095809590959B01AC01BD01BD
:04109800CF010895E7
:10109C00BC0121E030E00BC04FE38DE093E0415008
:1010AC0080409040E1F700C000002F5F3F4F94E17B
:1010BC00969FA001979F500D11244217530764F778
:0210CC00089585
:1010CE00052E97FB1EF400940E94040957FD07D0CD
:1010DE000E942C0807FC03D04EF40C940409509582
:0E10EE004095309521953F4F4F4F5F4F08952D
:1010FC0097FB072E16F4009407D077FD09D00E94B9
:10110C00920807FC05D03EF4909581959F4F089569
:08111C00709561957F4F089565
:10112400AA1BBB1B51E107C0AA1FBB1FA617B70709
:1011340010F0A61BB70B881F991F5A95A9F7809525
:081144009095BC01CD01089556
:10114C00A29FB001B39FC001A39F700D811D1124FC
:0E115C00911DB29F700D811D1124911D0895EB
:10116A0092B1892B82B985E08A95F1F7000012B80D
:0A117A0082E08A95F1F70000089565
:1011840098B1892B88B985E08A95F1F7000018B8E1
:0A11940082E08A95F1F7000008954B
:10119E0092B1892B82B982E08A95F1F700C012B81C
:0A11AE0085E08A95F1F700C008956E
:1011B80098B1892B88B982E08A95F1F700C018B8F0
:0A11C80085E08A95F1F700C0089554
:1011D2000E94A608A59F900DB49F900DA49F800D1C
:0611E200911D1124089587
:1011E80012B88EEF90E00197F1F700C00000089563
:1011F80018B88EEF90E00197F1F700C0000008954D
:1012080090958095709561957F4F8F4F9F4F08956A
:10121800B7FF0C94E9080E94E908821B930B089514
:041228000C94000022
:04122C0001000000BD
:00000001FF
